:100000000C9472000C9497020C9493000C9493003F
:100010000C9493000C9493000C9493000C94930014
:100020000C9493000C9493000C9493000C94930004
:100030000C9493000C9493000C9493000C949300F4
:100040000C9493000C9493000C9493000C949300E4
:100050000C9493000C9493000C9493000C949300D4
:100060000C9493000C9493000C9493000C949300C4
:100070000C9493000C9493000C9493000C949300B4
:100080000C9493000C9493000C9493000C949300A4
:100090000C9493000C9493000C9493000C94930094
:1000A0000C9493000C9493000C9493000C94930084
:1000B0000C9493000C9493000C9493000C94930074
:1000C0000C9493000C9493000C9493000C94930064
:1000D0000C9493000C9493000C9493000C94930054
:1000E0000C94930011241FBECFEFD1E2DEBFCDBF31
:1000F00000E00CBF12E0A0E0B2E0EAECFDE000E0BE
:100100000BBF02C007900D92A432B107D9F722E0CD
:10011000A4E2B2E001C01D92A034B207E1F70E9450
:1001200073040C94E3060C940000E2E0F1E080819B
:100130008B7F8083089586E69EE00197F1F70000AB
:100140004098419880E388B9429AEFEFF7E43197FD
:10015000F1F700C000004298E6E6FEE03197F1F7C3
:1001600000004098419888B9429AEFEFF7E4319740
:10017000F1F700C000004298E6E6FEE03197F1F7A3
:1001800000004098419888B9429A8FEF97E4019710
:10019000F1F700C000004298E6E6FEE03197F1F783
:1001A00000004098419880E288B9429A8FEF97E426
:1001B0000197F1F700C000004298089598B19F7030
:1001C00098B998B1282F207F922B98B940984198E0
:1001D000429AEFEFF7E43197F1F700C00000429840
:1001E00098B19F7098B998B18295807F892B88B912
:1001F00040984198429A8FEF97E40197F1F700C039
:100200000000429808950E949B0086E69EE00197B8
:10021000F1F7000088E20E94DE0081E00E94DE002B
:1002200086E00E94DE008EE00E94DE0080E80E94F0
:10023000DE00089598B19F7098B998B1282F207F5B
:10024000922B98B9409A4198429AEFEFF7E4319790
:10025000F1F700C00000429898B19F7098B998B12A
:100260008295807F892B88B9409A4198429A8FEF76
:1002700097E40197F1F700C000004298089580E8E4
:100280000E94DE000895CF93DF93EC0188818823DC
:1002900031F021960E941A0189918111FBCFDF91E3
:1002A000CF910895823071F018F48130C9F405C0FF
:1002B000833069F08430A1F40FC0862F81580E94EA
:1002C000DE000895862F81540E94DE000895862F57
:1002D0008D560E94DE000895862F8D520E94DE000A
:1002E00008950F931F93CF93DF938A01E901882329
:1002F00011F0611103C00E943F0102C00E9452012F
:10030000C530D10509F0DBC09801329522952F70D8
:1003100023273F702327A7E4B3E00E94D7069695D2
:1003200087959695879596958795C0969093350273
:10033000809334020E941A019801369527953695CC
:10034000279536952795A5ECB0E20E94D706AC011B
:10035000529542954F7045275F70452750933F0255
:1003600040933E029A01ADECBCEC0E94D7069695F4
:10037000879596958795969587959C01220F331FB3
:10038000880F991F880F991F880F991F820F931F3D
:10039000481B590BCA01C0969093370280933602CE
:1003A0000E941A0104C0C330D10509F08DC0980124
:1003B0003695279536952795ABE7B4E10E94D70689
:1003C000AC015695479550933F0240933E029A01E7
:1003D000ADECBCEC0E94D7069695879596958795CF
:1003E000969587959C01220F331F880F991F880FC0
:1003F000991F880F991F820F931F481B590BCA0121
:10040000C09690933902809338020E941A01980195
:10041000ADECBCEC0E94D706AC01569547955695BD
:1004200047955695479550933F0240933E029A0157
:100430000E94D70696958795969587959695879568
:100440009C01220F331F880F991F880F991F880F57
:10045000991F820F931F481B590BCA01C096909396
:100460003B0280933A020E941A0103C0C130D105B9
:1004700001F59801ADECBCEC0E94D70696958795E6
:1004800096958795969587959C01220F331F880F27
:10049000991F880F991F880F991F820F931F081BA0
:1004A000190BC801C09690933D0280933C020E94B4
:1004B0001A0126976CF085E40E941A0109C0C43025
:1004C000D10509F070CF38CFC230D10579F69FCF72
:1004D000DF91CF911F910F91089587B1876F87B9F1
:1004E00088B1807888B908958AB18E6F8AB9589A90
:1004F000089581B18F6081B9EAE0F1E0808188617F
:100500008083089510BA11BA08950E946D020E9466
:1005100074020E9479020E9482020895F894E9E62A
:10052000F0E0808182608083E89A789408951F9239
:100530000F920FB60F9211248F939F93AF93BF9397
:100540008091300290913102A0913202B091330239
:100550000196A11DB11D8093300290933102A093AA
:100560003202B0933302BF91AF919F918F910F9060
:100570000FBE0F901F901895F8940E9485020E945C
:100580008E02789408955E985F9808955E9A5F9AB7
:1005900008955E985F9A08955C9A5D9A08950E9406
:1005A000C302109230021092310210923202109265
:1005B00033022FEF8FE794E0215080409040E1F725
:1005C00000C000008091300290913102A09132026F
:1005D000B091330280932C0290932D02A0932E02AF
:1005E000B0932F0261E081E00E94520180E092E02E
:1005F0000E94430140912C0250912D0260912E02E5
:1006000070912F0225E030E061E082E00E947101EC
:100610002FEF8FEF9CE2215080409040E1F700C027
:10062000000081E00E94DE0040912C0250912D02DA
:1006300060912E0270912F02842F952F08950E94B1
:10064000C6021092300210923102109232021092C1
:1006500033022FEF8FE794E0215080409040E1F784
:1006600000C000008091300290913102A0913202CE
:10067000B09133028093240290932502A093260226
:10068000B093270261E081E00E9452018BE092E08A
:100690000E9443014091240250912502609126025C
:1006A0007091270225E030E061E082E00E94710154
:1006B0002FEF8FEF9CE2215080409040E1F700C087
:1006C000000081E00E94DE0040912402509125024A
:1006D0006091260270912702842F952F08950E9421
:1006E000C90210923002109231021092320210921E
:1006F00033022FEF8FE794E0215080409040E1F7E4
:1007000000C000008091300290913102A09132022D
:10071000B09133028093280290932902A0932A0279
:10072000B0932B0261E081E00E94520188E192E0E7
:100730000E944301409128025091290260912A02AF
:1007400070912B0225E030E061E082E00E947101AF
:100750002FEF8FEF9CE2215080409040E1F700C0E6
:10076000000081E00E94DE004091280250912902A1
:1007700060912A0270912B02842F952F089581B1E8
:100780008F6081B9EAE0F1E0808188618083E0E2F6
:10079000F1E08081836A8083E1E2F1E080818A6117
:1007A00080838FE39CE9909327018093260108952D
:1007B00086E082B980E29EE490932901809328012B
:1007C00090932B0180932A010895259A2D9A0895DC
:1007D000269A2E9A0895279A2F9A0895E1E8F0E034
:1007E0008081887F80838CEF8093850081E0809377
:1007F000840093E0909389008FEF8093880090931A
:100800008B0080938A0090938D0080938C00A0E8E9
:10081000B0E08C918B6A8C938C918B7A8C938081D5
:100820008C60808380818D7F808308951092890001
:10083000682F70E080E090E00E9449062BE734E1E9
:100840004EEE5FE30E94B50520E030E04CE052E45C
:100850000E9451050E941D06609388000895109221
:100860008B00682F70E080E090E00E9449062BE743
:1008700034E14EEE5FE30E94B50520E030E04CE04D
:1008800052E40E9451050E941D0660938A0008955B
:1008900010928D00682F70E080E090E00E94490681
:1008A0002BE734E14EEE5FE30E94B50520E030E037
:1008B0004CE052E40E9451050E941D0660938C009A
:1008C0000895E1E0F1E08081846080830895E2E0B2
:1008D000F1E080818460808308950E9495000895EE
:1008E0000E94670408950E94BC020E949B000E941F
:1008F00003010E94CC020E94BF030E94E5030E94F4
:10090000E8030E94EB030E94EE030E94610480EA68
:100910000E9416042FEF8FEF9CE221508040904000
:10092000E1F700C0000080E00E942F042FEF8FEF5E
:100930009CE2215080409040E1F700C000000E94FE
:1009400070042FEF8FEF9CE2215080409040E1F740
:1009500000C000000E946D042FEF8FEF9CE2215039
:1009600080409040E1F700C000002FEF8FEF90EE45
:10097000215080409040E1F700C000000E94D80361
:100980002FEF8FE796E1215080409040E1F700C0C3
:1009900000000E94CF02EC010E946F038C179D079C
:1009A000ACF40E94CF02EC010E941F038C179D073C
:1009B0006CF48EE10E9448042FEF8FE796E12150FE
:1009C00080409040E1F700C0000039C00E941F0342
:1009D000EC010E94CF028C179D07ACF40E941F030C
:1009E000EC010E946F038C179D076CF48CE30E944E
:1009F00048042FEF8FE796E1215080409040E1F7C7
:100A000000C000001CC00E946F03EC010E94CF02D6
:100A10008C179D07A4F40E946F03EC010E941F0332
:100A20008C179D0764F48AE50E9448042FEF8FE736
:100A300096E1215080409040E1F700C0000080EA3C
:100A40000E942F042FEF8FEF96E8215080409040B6
:100A5000E1F700C0000080E00E9416042FEF8FEF46
:100A600096E8215080409040E1F700C0000080E00F
:100A70000E942F042FEF8FEF9CE221508040904086
:100A8000E1F700C0000080EA0E9416042FEF8FEF0C
:100A90009CE2215080409040E1F700C000004FCF21
:100AA0005058BB27AA270ED048C139D130F03ED1CB
:100AB00020F031F49F3F11F41EF42EC10EF4E095A6
:100AC000E7FB24C1E92F4AD180F3BA176207730705
:100AD0008407950718F071F49EF562C10EF4E09555
:100AE0000B2EBA2FA02D0B01B90190010C01CA01E8
:100AF000A0011124FF27591B99F0593F50F4503E93
:100B000068F11A16F040A22F232F342F4427585F84
:100B1000F3CF469537952795A795F0405395C9F79C
:100B20007EF41F16BA0B620B730B840BBAF0915054
:100B3000A1F0FF0FBB1F661F771F881FC2F70EC0F3
:100B4000BA0F621F731F841F48F4879577956795C6
:100B5000B795F7959E3F08F0B3CF9395880F08F0AF
:100B60009927EE0F9795879508950CD0E6C0DED0B3
:100B700040F0D5D030F021F45F3F19F0C7C05111DB
:100B800010C1CAC0EBD098F39923C9F35523B1F330
:100B9000951B550BBB27AA2762177307840738F0EC
:100BA0009F5F5F4F220F331F441FAA1FA9F333D04B
:100BB0000E2E3AF0E0E830D091505040E695001CFF
:100BC000CAF729D0FE2F27D0660F771F881FBB1FBB
:100BD000261737074807AB07B0E809F0BB0B802D95
:100BE000BF01FF2793585F4F2AF09E3F510568F0E1
:100BF0008DC0D7C05F3FECF3983EDCF386957795C8
:100C00006795B795F7959F5FC9F7880F911D9695E2
:100C1000879597F90895E1E0660F771F881FBB1F3E
:100C2000621773078407BA0720F0621B730B840BEB
:100C3000BA0BEE1F88F7E095089598D088F09F577B
:100C400090F0B92F9927B751A0F0D1F0660F771F18
:100C5000881F991F1AF0BA95C9F712C0B13081F0F8
:100C60009FD0B1E008959CC0672F782F8827B85F88
:100C700039F0B93FCCF3869577956795B395D9F759
:100C80003EF490958095709561957F4F8F4F9F4F63
:100C90000895E89409C097FB3EF49095809570956F
:100CA00061957F4F8F4F9F4F9923A9F0F92F96E9B8
:100CB000BB279395F695879577956795B795F1112D
:100CC000F8CFFAF4BB0F11F460FF1BC06F5F7F4FCA
:100CD0008F4F9F4F16C0882311F096E911C07723DC
:100CE00021F09EE8872F762F05C0662371F096E8E5
:100CF000862F70E060E02AF09A95660F771F881FB4
:100D0000DAF7880F9695879597F9089597F99F6771
:100D100080E870E060E008959FEF80EC0895002483
:100D20000A941616170618060906089500240A9450
:100D300012161306140605060895092E0394000CD6
:100D400011F4882352F0BB0F40F4BF2B11F460FF65
:100D500004C06F5F7F4F8F4F9F4F089557FD90588E
:100D6000440F551F59F05F3F71F04795880F97FB6F
:100D7000991F61F09F3F79F0879508951216130629
:100D80001406551FF2CF4695F1DF08C01616170658
:100D90001806991FF1CF869571056105089408958D
:100DA000E894BB2766277727CB0197F90895A29F80
:100DB000B001B39FC001A39F01D0B29F700D811DF0
:0A0DC0001124911D0895F894FFCF4F
:100DCA005265642050756C73657300477265656E71
:100DDA002050756C73657300426C75652050756C94
:040DEA0073657300BA
:00000001FF
